:100000000C9435010C9460010C9460010C94600117
:100010000C9460010C9460010C9460010C946001DC
:100020000C9460010C9460010C9460010C946001CC
:100030000C9460010C9460010C9460010C946001BC
:100040000C9460010C9437040C9466040C94950491
:100050000C9460010C9460010C9460010C9460019C
:100060000C9460010C9463050C9460010C94BF0522
:100070000C9460010C9460010C9460010C9460017C
:100080000C9460010C9460010C9460010C9460016C
:100090000C9491050C9460010C94EA050C94600199
:1000A0000C9460010C9460010C941D030C944C039F
:1000B0000C947B030C9460010C9460010C94AA03D3
:1000C0000C94D9030C9408040C9460010C94600106
:1000D0000C9460010C9460010C9460010C9460011C
:1000E0000C9460010C9460010C9460010C9460010C
:1000F0000C9460010C9460010C9460010C946001FC
:100100000C9460010C9460010C9460010C946001EB
:100110000C9460010C9460010C9460010C94A40197
:100120000C9460010C9460010C9460010C946001CB
:100130000C9460010C94D9070C944D120C94B409E2
:100140000C944B0E0C944B120C94EC070C94150E63
:100150000C945C0D0C945B120C940D0E0C942112FB
:100160000C9453120C9491110C94D40A0C94E30A3D
:10017000454946522025233032780A504349465299
:100180002025233032780A00534349525153202509
:10019000233032780A4241544D4F4E2025233032CD
:1001A000780A004952515F53544154555331202528
:1001B000233032780A004952515F53544154555309
:1001C0002025233032780A00000306080A7363688A
:1001D0006564756C657228293A20737461636B20BD
:1001E0006F766572666C6F7720646574656374659D
:1001F000642C207069643D25690A003078256C788C
:10020000203D3E20006D61696E28293A20546869BE
:10021000732069732052494F542120285665727308
:10022000696F6E3A20323032352E30312D6465766A
:10023000656C2D3339332D676365666131290A009A
:100240002A2A2A2068616C7465642E0A0A002A2A08
:100250002A2052494F54206B65726E656C20706184
:100260006E69633A0A25730A0A00832D8093030797
:10027000822D8093040711241FBECFEFD1E8DEBF8B
:10028000CDBF00E00CBF12E0A0E0B2E0E4EDFCE284
:1002900000E00BBF02C007900D92A63CB107D9F752
:1002A00027E0A6ECB2E001C01D92A330B207E1F74F
:1002B0000E944E060C9468160E9462010C94681607
:1002C0000C94700185E792E00E94C71390E080E0F3
:1002D00008950895E1E6F0E080E8808310820895B3
:1002E00080914F011F928F9386EB91E09F938F93A4
:1002F0000E94A0138091BF001F928F9383EA91E028
:100300009F938F930E94A013909151018091E000E0
:100310001F929F931F928F9388E891E09F938F93F2
:100320000E94A0139BB38CB31F929F931F928F9335
:1003300080E791E09F938F930E94A013749861E8E7
:1003400072E080E00E94100B1F920F920FB60F9286
:1003500011240BB60F922F933F934F935F936F939C
:100360007F938F939F93AF93BF93EF93FF938AB540
:100370008F5F8ABD0E944107FF91EF91BF91AF91BE
:100380009F918F917F916F915F914F913F912F91AD
:100390000F900BBE0F900FBE0F901F9018958AB54F
:1003A0008F5F8ABD08954F925F926F927F928F9276
:1003B0009F92AF92BF920F931F93CF93DF9383309F
:1003C000F0F4D0E0C0E0812C94E2992E94EFA92EB5
:1003D000B12CFE01E853FE4F94912401350104C075
:1003E00076946794579447949A95D2F74416550695
:1003F0006606770699F02196C530D10551F78FEF43
:100400009FEFDF91CF911F910F91BF90AF909F9081
:100410008F907F906F905F904F9008959CE0899FA0
:10042000F0011124EA5FFD4FA081B1811C92119669
:100430001C92119712961C92129715961C921E925E
:10044000149737832683118700876C2F6F5F62872D
:1004500011966C9390E080E0D4CF8F929F92AF92F0
:10046000BF92CF92DF92EF92FF920F931F93CF93A1
:10047000DF935B0163E0A616B1040CF073C07FB795
:10048000F8949CE0899F90011124F901EA5FFD4FE7
:100490006F01A081B18114962D913C911597240F85
:1004A000351FE501CC0FDD1FCA0FDB1F39872887F9
:1004B00085010F5F1F4F88248394912C740102C023
:1004C000EE0CFF1C0A95E2F78701E480F580F70146
:1004D0000083F601C280D380F6019081902B908337
:1004E000F40102C0EE0FFF1FAA94E2F763E0869FBB
:1004F000C001112402C0EE0FFF1F8A95E2F7809120
:10050000C6029091C702E82BF92BF093C702E09343
:10051000C60214968D919C911597281B390B421792
:100520005307C0F0F89477FD789490E080E0DF9175
:10053000CF911F910F91FF90EF90DF90CF90BF90E0
:10054000AF909F908F90089514968D919C911597E0
:1005500099878887F701808190E080239123892BF8
:1005600099F3E0CF8FEF9FEFE2CF63307105C4F4D2
:100570009CE0899FF0011124EA5FFD4F0280F38126
:10058000E02D20816F5F7F4F81E090E001C0880FF8
:100590006A95EAF780958223808390E080E0089551
:1005A0008FEF9FEF08950F931F93CF93DF93162F35
:1005B000072FC82FD0E021E030E0062E02C0220F26
:1005C000331F0A94E2F793E0899FA001112402C02F
:1005D000220F331F4A95E2F74091C6025091C7029D
:1005E00024233523232B11F00E94B5028CE08C9F2D
:1005F000D0018D9FB00D1124AA5FBD4F1696ED91CD
:10060000FC911797612F702F18968D919C91DF9117
:10061000CF911F910F9119942FB7F8949CE0899F67
:10062000F0011124EA5FFD4F0190F081E02D8481FB
:100630009581F89427FD789408951F920F920FB634
:100640000F9211240BB60F922F933F934F935F930A
:100650006F937F938F939F93AF93BF93EF93FF938A
:100660000E94CF0170E060E080E00E94D3020E940F
:100670004107FF91EF91BF91AF919F918F917F9132
:100680006F915F914F913F912F910F900BBE0F9003
:100690000FBE0F901F9018951F920F920FB60F92DA
:1006A00011240BB60F922F933F934F935F936F9349
:1006B0007F938F939F93AF93BF93EF93FF930E948A
:1006C000CF0161E070E080E00E94D3020E94410708
:1006D000FF91EF91BF91AF919F918F917F916F911A
:1006E0005F914F913F912F910F900BBE0F900FBED6
:1006F0000F901F9018951F920F920FB60F92112412
:100700000BB60F922F933F934F935F936F937F930B
:100710008F939F93AF93BF93EF93FF930E94CF016B
:1007200062E070E080E00E94D3020E944107FF91E6
:10073000EF91BF91AF919F918F917F916F915F9159
:100740004F913F912F910F900BBE0F900FBE0F90C6
:100750001F9018951F920F920FB60F9211240BB68F
:100760000F922F933F934F935F936F937F938F934A
:100770009F93AF93BF93EF93FF930E94CF0170E0DD
:1007800060E081E00E94D3020E944107FF91EF9157
:10079000BF91AF919F918F917F916F915F914F9199
:1007A0003F912F910F900BBE0F900FBE0F901F9097
:1007B00018951F920F920FB60F9211240BB60F923D
:1007C0002F933F934F935F936F937F938F939F9359
:1007D000AF93BF93EF93FF930E94CF0161E070E06E
:1007E00081E00E94D3020E944107FF91EF91BF91E7
:1007F000AF919F918F917F916F915F914F913F91B9
:100800002F910F900BBE0F900FBE0F901F90189559
:100810001F920F920FB60F9211240BB60F922F93C7
:100820003F934F935F936F937F938F939F93AF9378
:10083000BF93EF93FF930E94CF0162E070E081E0ED
:100840000E94D3020E944107FF91EF91BF91AF91A7
:100850009F918F917F916F915F914F913F912F91D8
:100860000F900BBE0F900FBE0F901F9018951F9208
:100870000F920FB60F9211240BB60F922F933F9346
:100880004F935F936F937F938F939F93AF93BF9398
:10089000EF93FF930E94CF0170E060E082E00E943E
:1008A000D3020E944107FF91EF91BF91AF919F91B9
:1008B0008F917F916F915F914F913F912F910F9009
:1008C0000BBE0F900FBE0F901F9018951F920F92A6
:1008D0000FB60F9211240BB60F922F933F934F93A5
:1008E0005F936F937F938F939F93AF93BF93EF9398
:1008F000FF930E94CF0161E070E082E00E94D3028A
:100900000E944107FF91EF91BF91AF919F918F910D
:100910007F916F915F914F913F912F910F900BBEFF
:100920000F900FBE0F901F9018951F920F920FB649
:100930000F9211240BB60F922F933F934F935F9317
:100940006F937F938F939F93AF93BF93EF93FF9397
:100950000E94CF0162E070E082E00E94D3020E9418
:100960004107FF91EF91BF91AF919F918F917F913F
:100970006F915F914F913F912F910F900BBE0F9010
:100980000FBE0F901F9018958AB58F5F8ABD08958E
:10099000FC01EE0FFF1FE857FD4F0190F081E02DA5
:1009A0006681880F991F880F991FDC01A853BD4FDE
:1009B000ED91FC91119712968D919C911994EF9263
:1009C000FF920F931F93CF93DF937901823008F04A
:1009D0004BC030E020E09EB3992319F0215031093B
:1009E000D1F790E0FC01EE0FFF1FEE0FFF1FE85361
:1009F000FD4FF182E08213830283880F991FFC016F
:100A0000E857FD4FC081D1811982188286E08A8320
:100A1000DB01CA0180589B47A14EBF4FE3E0880F1E
:100A2000991FAA1FBB1FEA95D1F79A01AB01F4E009
:100A3000220F331F441F551FFA95D1F7BC01CD017A
:100A40000E94B712215031093D832C8388EDEF2895
:100A500009F488E4898390E080E0DF91CF911F91D1
:100A60000F91FF90EF90089584ED9FEFF6CFCF9315
:100A7000DF9391E0082E01C0990F0A94EAF7DB0199
:100A8000460F571FE82FF0E0EE0FFF1FE857FD4F0E
:100A90009F01A417B50719F4DF91CF910895C08184
:100AA000D181888185FFFDCF6FB7F8948EB3892BF4
:100AB0008EBBF89467FD7894E901688179818D9106
:100AC000EB018E83E6CF1F920F920FB60F92112487
:100AD0000BB60F922F933F934F935F936F937F9338
:100AE0008F939F93AF93BF93EF93FF930E94C404A0
:100AF00090E080E00E94C8040E944107FF91EF91BE
:100B0000BF91AF919F918F917F916F915F914F9125
:100B10003F912F910F900BBE0F900FBE0F901F9023
:100B200018951F920F920FB60F9211240BB60F92C9
:100B30002F933F934F935F936F937F938F939F93E5
:100B4000AF93BF93EF93FF930E94C40481E090E0C2
:100B50000E94C8040E944107FF91EF91BF91AF919D
:100B60009F918F917F916F915F914F913F912F91C5
:100B70000F900BBE0F900FBE0F901F9018951F92F5
:100B80000F920FB60F9211240BB60F922F933F9333
:100B90004F935F936F937F938F939F93AF93BF9385
:100BA000EF93FF930E94C404F0980E944107FF91C5
:100BB000EF91BF91AF919F918F917F916F915F91D5
:100BC0004F913F912F910F900BBE0F900FBE0F9042
:100BD0001F9018951F920F920FB60F9211240BB60B
:100BE0000F922F933F934F935F936F937F938F93C6
:100BF0009F93AF93BF93EF93FF930E94C404F19828
:100C00000E944107FF91EF91BF91AF919F918F910A
:100C10007F916F915F914F913F912F910F900BBEFC
:100C20000F900FBE0F901F9018950F931F93CF93A7
:100C3000DF93C5E7D2E0C357D240D695C79510E001
:100C400000E0C017D10729F4DF91CF911F910F91D8
:100C50000895F801EE0FFF1FED58FD4F0190F08150
:100C6000E02D19950F5F1F4FECCF0E946901A895E9
:100C70000FB6F894A8958091600088618093600019
:100C8000109260000FBE0E946A010E94FE070E943F
:100C9000120D1EBA1ABC8FB7789408950E943506BB
:100CA0000E9415080C94E60A240F351FF9013197AC
:100CB0004FEA408331974EEF408344EB59E0319740
:100CC00040833197508331971082319780833197D9
:100CD00090833197108231971082319780E880831A
:100CE0003197108231971082319710822352310947
:100CF00012922E173F07E1F7DF0111976C931197BE
:100D00007C938AE18E938F5F8032E1F7CF01099760
:100D100008950E94C8088FB778948DB79EB7209128
:100D2000040230910502821B930B90930102809381
:100D300000028091F9069091FA06892B41F4809186
:100D40000202909103029093FA068093F906A09113
:100D5000F602B091F702CD91CDBFDD91DEBFFF91DC
:100D6000EF91DF91CF91BF91AF919F918F917F9143
:100D70006F915F914F913F912F911F910F91FF9034
:100D8000EF90DF90CF90BF90AF909F908F907F902B
:100D90006F905F904F903F902F901F900F900CBEE0
:100DA0000F900BBE0F900FBE0F9008958AB5811162
:100DB00061C00F920FB6F8940F920BB60F920CB65B
:100DC0000F921F9211242F923F924F925F926F9237
:100DD0007F928F929F92AF92BF92CF92DF92EF92CB
:100DE000FF920F931F932F933F934F935F936F93B4
:100DF0007F938F939F93AF93BF93CF93DF93EF93A3
:100E0000FF93A091F602B091F7020DB60D920EB6C7
:100E10000D920E94C808A091F602B091F702CD9100
:100E2000CDBFDD91DEBFFF91EF91DF91CF91BF91FB
:100E3000AF919F918F917F916F915F914F913F9172
:100E40002F911F910F91FF90EF90DF90CF90BF9067
:100E5000AF909F908F907F906F905F904F903F905A
:100E60002F901F900F900CBE0F900BBE0F900FBED7
:100E70000F90089581E090E09093F5028093F40242
:100E800008958AB581508ABD8091F4029091F5024F
:100E9000892B09F464C08AB5811161C00F920FB625
:100EA000F8940F920BB60F920CB60F921F9211246A
:100EB0002F923F924F925F926F927F928F929F926A
:100EC000AF92BF92CF92DF92EF92FF920F931F9358
:100ED0002F933F934F935F936F937F938F939F9342
:100EE000AF93BF93CF93DF93EF93FF93A091F6025D
:100EF000B091F7020DB60D920EB60D920E94C80881
:100F0000A091F602B091F702CD91CDBFDD91DEBF89
:100F1000FF91EF91DF91CF91BF91AF919F918F9111
:100F20007F916F915F914F913F912F911F910F9101
:100F3000FF90EF90DF90CF90BF90AF909F908F90F9
:100F40007F906F905F904F903F902F901F900F90E9
:100F50000CBE0F900BBE0F900FBE0F90189508950A
:100F60002EB3211109C081309105B9F040F08230D3
:100F70009105B9F00397C9F083B7817F03C083B7A8
:100F8000817F846083BF83B7816083BF78948895B5
:100F9000F89483B78E7F83BF089583B7817F86607F
:100FA000F1CF83B7817F8C60EDCF83B7817F826083
:100FB000E9CFCF93DF931F92CDB7DEB761E070E04A
:100FC000CE0101960E94560D8981082E000C990BC6
:100FD0000F90DF91CF910895CF93DF931F92CDB7FC
:100FE000DEB7898361E070E0CE0101960E946E0D4C
:100FF00090E080E00F90DF91CF9108950E940A0B5E
:10100000EDEFF6E088E392E0938382838AE292E058
:10101000918380838CE892E00C94C7138DB1886132
:101020008DB98EB188618EB908950895EF92FF92BF
:101030000F931F93CF93DF93EC01F62EEFB6F89446
:1010400088819981892B89F48FEF9FEF9983888319
:10105000F894E7FC7894FF24F3948F2DDF91CF91DF
:101060001F910F91FF90EF900895611104C0F894C3
:10107000E7FC7894F2CF0091F6021091F702011587
:10108000110511F40E94BA0A63E0C8010E94180910
:1010900088819981019669F4C801069699838883AD
:1010A000F80117821682F894E7FC78940E94D6061D
:1010B000D4CFB801CE010E94EB09F5CF1F93CF9397
:1010C000DF93EC011FB7F89488819981009739F478
:1010D000F89417FD7894DF91CF911F9108958F3F79
:1010E000980719F419821882F3CFFC01208131810D
:1010F000398328836CE006970E94180988819981BA
:10110000892B21F48FEF9FEF99838883F89417FD43
:101110007894DF91CF911F910C94D606CF93DF93F3
:10112000EC01A881B981109709F18D919C911197DB
:10113000FD018617970779F4A617B70731F41982CE
:101140001882CB01DF91CF910895FB0180819181BD
:101150008D939C93F6CF0190F081E02D8081918159
:101160006817790731F0AE17BF07A9F770E060E0A4
:10117000E8CF3097D9F3DB018D919C9191838083E7
:101180008881998186179707E1F6F983E883D9CF9B
:10119000E091F602F091F7021092F5021092F4023B
:1011A0002091D0023091D10290E080E020FF30C049
:1011B000880F991FDC01AC52BD4F0D90BC91A02D42
:1011C0008D919C9106972BE0DC0112962C938E1743
:1011D0009F0769F1309701F122812B3011F42CE047
:1011E0002283A489B5892D913C911197A217B30749
:1011F00099F085818F9384818F938DEC91E09F93FB
:101200008F930E94A0136EE872E087E00E94100B9B
:10121000369527950196CACFFC01248135813093FC
:101220003D0320933C039093F7028093F6020895C8
:101230001F93CF93DF93EC01162F8A816B3008F454
:1012400046C08B30E0F59E012A5F3F4F4B81842FD3
:1012500090E0880F991FFC01EC52FD4FA081B181F5
:10126000109791F16D917C917F836E830190F08155
:10127000E02D318320838C529D4FFC0131832083EC
:1012800081E090E0A0E0B0E004C0880F991FAA1FA1
:10129000BB1F4A95D2F74091D0025091D102609184
:1012A000D2027091D302842B952BA62BB72B80935F
:1012B000D0029093D102A093D202B093D3021A83AA
:1012C000DF91CF911F9108953F832E83D4CF8B3030
:1012D000B0F38B8190E0880F991FBE016A5F7F4F4A
:1012E0008C529D4F0E948E082B81E22FF0E0EE0F72
:1012F000FF1FEC52FD4F80819181892B01F781E026
:1013000090E0A0E0B0E004C0880F991FAA1FBB1FA7
:101310002A95D2F780959095A095B0954091D002EE
:101320005091D1026091D2027091D302842395230F
:10133000A623B723BCCFE091F602F091F7022281F9
:101340002B3028F023812817190669F060F08AB540
:10135000882339F081E090E09093F5028093F402C5
:1013600008950C94D60608958FB7F894E0913C0345
:10137000F0913D03EE0FFF1FE650FD4F11821082EA
:101380008091F8029091F90201979093F90280936D
:10139000F80260E08091F6029091F7020E9418092D
:1013A0001092F7021092F6020E948906CF938AB536
:1013B00081110FC0CFB7F89462E08091F60290914E
:1013C000F7020E941809F894C7FD7894CF910C9405
:1013D000D606CF910895FB0122812B3010F00E9498
:1013E000BA0A6381AF014A5F5F4FDC012D913C91E6
:1013F0002115310531F437832683FC015183408365
:101400000895D901169713967C916717A0F3C90127
:10141000ECCF4F925F927F928F929F92AF92BF924A
:10142000CF92DF92EF92FF920F931F93CF93DF93B0
:10143000FC012B01722EC80104EE1FEF403108F0B1
:1014400076C09B012A513109EF01C20FD31F73FEF1
:1014500022C0F183E0839FB6F8946CEF72E001E064
:1014600010E0DB01AD90BD90BD01AB28F1F00F5F46
:101470001F4F01321105A9F7F89497FC78940FEBF0
:101480001FEF55C0DB016D937C936E5F7F4F6C1730
:101490007D07C0F3E0CFBF01FACF62E0CE010E942A
:1014A0001809F89497FC789442C05601B701842E2D
:1014B0007F01F801EE0FFF1FE650FD4FD183C0837F
:1014C0001D830C83A7010E94540699838883FD8A9B
:1014D000EC8A598E488EBF8AAE8A8B821A821F820E
:1014E0001E82198618861B861A861D861C861F86F4
:1014F0001E868FEF9FEF998B888B1B8A1A8A8091AB
:10150000F8029091F90201969093F9028093F80203
:1015100070FCC3CF6CE0CE010E94180972FCC1CFF1
:10152000F89497FC7894882D90E00E949B09C8015C
:10153000DF91CF911F910F91FF90EF90DF90CF90AF
:10154000BF90AF909F908F907F905F904F90089545
:101550008AB581110AC08FB787FF07C08DE992E075
:101560000E94C7130E94D609FDCF6DE972E083E0A7
:101570000E94100BB0E0AF919F918F918F939F933A
:10158000AF930197A109B048880F991FAA1FBB1FED
:10159000BF93AF939F938F938BEF91E09F938F9324
:1015A0000E94A0130E94A80A0E94150685E092E0FE
:1015B0009F938F930E94A0130E9462010F900F903F
:1015C00090E080E008950E94130DFDCF8FB7F8944E
:1015D0008FEAC82E82E0D82EF12CE12C03EE1AE01F
:1015E00024E030E04FE060EC70E08EE393E00E9496
:1015F000090A94EBC92E92E0D92E04ED1AE024E0FA
:1016000030E047E064E872E08EEF93E00E94090A60
:101610000E9489060E940E080C945E0D089508959C
:10162000EB012091820630918306232BE1F421E027
:1016300030E030938306209382060E940F0BDF93E5
:10164000CF938EE492E09F938F930E94A01380E447
:1016500092E09F938F930E94A0130F900F900F9092
:101660000F900F900F908FB7F8940E940E0B0E946E
:101670004F0DCF92DF92EF92FF92CF93DF936115E0
:10168000710581059105C1F1F0E0E0E0211531051A
:101690004105510561F49B01AC012EC096958795DB
:1016A00077956795569547953795279531966B01B0
:1016B000C22AC0FEF3CF60FF28C020FF2BC0261730
:1016C00037074807590750F4D62FC72FB82FA92F2F
:1016D000CA01B9012D2F3C2F4B2F5A2F261B370B38
:1016E000480B590B51F79B01AC0104C0220F331F6B
:1016F000441F551FEA95D2F7CA01B901DF91CF9176
:10170000FF90EF90DF90CF9008959695879577950D
:101710006795D1CF5695479537952795CECF2F9280
:101720003F924F925F926F927F928F929F92AF9271
:10173000BF92CF92DF92EF92FF920F931F93CF93BE
:10174000DF93CDB7DEB76F970FB6F894DEBF0FBE4D
:10175000CDBF9B8F8A8F6A017B013901D901C801F6
:10176000AA27BB27892B8A2B8B2B11F40E94BA0A3C
:10177000A9019801CB01B6010E94390B4B015C0114
:10178000C301B801A50194010E94B71229833A83CD
:101790004B835C83C701B601A50194010E94B71277
:1017A0002F87388B498B5A8B89819A81AB81BC8179
:1017B000AA27BB27892B8A2B8B2BC1F2232B242B07
:1017C000252B09F4F3C02F84388890E080E036940C
:1017D00027949C012F5F3F4F2114310409F06AC008
:1017E0003A87298741E050E060E070E08A019B0180
:1017F000082E04C0000F111F221F331F0A94D2F7B6
:101800000B871C872D873E87E0E0812C1E8EB0E081
:10181000A0E0F0E0912C1F8E412C512C32019C0154
:10182000205C3F4F3D8F2C8F29813A814B815C8119
:1018300089019A0109831A834B833C836C8D7D8DCA
:1018400026163706C8F12E2F382D4E8D5B2F6A2FA6
:101850007F2F892D9F8DA0E00E94641329F07FEFD8
:10186000471A570A670A770AAA8DBB8D4D925D9277
:101870006D927C92139780E2B9858B1BEA8DFB8D6C
:1018800084836F960FB6F894DEBF0FBECDBFDF9195
:10189000CF911F910F91FF90EF90DF90CF90BF906D
:1018A000AF909F908F907F906F905F904F903F9000
:1018B0002F900895C9018BCF2E2F382D4E8D5B2F81
:1018C0006A2F7F2F892D9F8D01E00E941C133B8B77
:1018D0004C8B5D8B6E8B7F8B888F998FE22F832E45
:1018E0004E8FB52FA62FF72F982E9F8F440C551C87
:1018F000661C771C4F85588969897A890B851C85F8
:101900002D853E854023512362237323452B462B8F
:10191000472B09F0E1602B853C854D855E8556950A
:101920004795379527952B873C874D875E8729817B
:101930003A814B815C8160E070E080E090E0AE2E07
:10194000BB88CC88DD88EE88FF88088D198D0E94C1
:101950005B1309F0F8F42E2F3B2DA601B701C80147
:10196000A980BA80CB80DC80E12CF12C00E010E073
:101970000E945213E22F832E4E8FB52FA62FF72FE2
:10198000982E9F8F689440F877FC5DCF5FEF251A03
:10199000350A54CF4114510461047104A9F74985F3
:1019A0005A85415051095A874987EECF412C512C15
:1019B00032011A86198658CF0F931F93CF93DF9366
:1019C000EC010E94E30D8C01CE0108960E945E0896
:1019D000C801DF91CF911F910F910895CF92DF92AF
:1019E000EF92FF920F931F93CF93DF93EC018B0144
:1019F0007A016C0188E0C80ED11CA701B801CE01A4
:101A00000E94B50D009749F0DF91CF911F910F9182
:101A1000FF90EF90DF90CF90089561E0C6010E94A3
:101A20001608EBCF0895CF93CFB7F894E6E4F2E031
:101A300085E090E09C01215031094481411107C0AB
:101A40003197C9010097B1F70E94B00703C08530F4
:101A50009105D1F7F894C7FD7894CF9108952FB7E9
:101A6000F894FC01EA5BFD4F80818F3F11F40E94E6
:101A7000BA0A8F5F8083F89427FD789408952FB772
:101A8000F894FC01EA5BFD4F8081811102C00E9445
:101A9000BA0A81508083F89427FD789408958FB70F
:101AA000F89490E080E00E94B007FBCFAB01BC014E
:101AB0008BE492E00C94EE0C0C94DC0C0F931F93CF
:101AC0000BE412E02CE53DE040E052EC61E070E018
:101AD00080E00E94DF041F910F910895CF93DF9360
:101AE000EB01AB01BC0180E00E943705CE01DF9124
:101AF000CF910895FC012FB7F89481E090E06481C4
:101B00007581468157816417750711F090E080E078
:101B1000F89427FD78940895FC014FB7F894268136
:101B2000378184819581281B390B81E090E06281A7
:101B300073812617370711F090E080E0F89447FD95
:101B400078940895FC012081318144815581CA0136
:101B500001969583848382819381019784239523C1
:101B6000820F931FFC0180810895BF92CF92DF9274
:101B7000EF92FF920F931F93CF93DF936C017A0143
:101B8000BFB6F8948B01EA01209729F0C6010E94A4
:101B90007A0D892B81F0F894B7FC7894C7018C1BDF
:101BA0009D0BDF91CF911F910F91FF90EF90DF90F0
:101BB000CF90BF900895C6010E94A20DF8018193B5
:101BC0008F012197E1CF0F931F93CF93DF93EC0108
:101BD000062F1FB7F8940E948C0D0097D9F4488106
:101BE00059816E817F819B012F5F3F4F3F832E8301
:101BF0002A813B812150310926233723240F351FA9
:101C0000F9010083F89417FD7894DF91CF911F912B
:101C10000F9108958FEF9FEFF5CFBC01635E7F4F6B
:101C2000FC01838D948D0C94A8100F93CF93DF93B8
:101C3000EC018B8D9C8DDC011E964D915D916D911B
:101C40007C9151974F3F5F4F6F4F7F4FD9F00E946C
:101C5000DF0F611571058105910581F02FA138A570
:101C600049A55AA50E94F1120BA50E943713A32F74
:101C7000F42FE52F622F7A2F8F2F9E2FDF91CF9198
:101C80000F910895DC011696ED91FC910280F3818D
:101C9000E02D1995DECF0F931F93CF93DF93EC01C7
:101CA00089A99AA9ABA9BCA98A019B01080F191F90
:101CB0002A1F3B1FC901B8012CA53DA54EA55FA554
:101CC0000E94F11208A90E943713F22FE32FBE01E0
:101CD000635E7F4F2F2F3E2F8B8D9C8DDF91CF9199
:101CE0001F910F910C94CC108F929F92AF92BF9244
:101CF000CF92DF92EF92FF920F931F93CF93DF93D8
:101D0000EC0149015A016701780185E3FE01119256
:101D10008A95E9F789EB92E09F838E837C8F6B8FA6
:101D200081E991E19CA38BA3DEA3CDA3DA01C901D4
:101D3000AA27BB27892B8A2B8B2B11F40E94BA0A66
:101D4000D801C601AA27BB27892B8A2B8B2BB1F37D
:101D500098018601BA01A401CE0187960E948F0BDB
:101D600095018401B701A601CE018C960E948F0BCC
:101D70008C149D04AE04BF04A8F56FA178A589A5B5
:101D80009AA52FEF3FEFA9010E94F1120BA50E9427
:101D90003713942F852FA901692F782F4E875F87DE
:101DA000688B798B4F3FFFEF5F076F077F0759F015
:101DB0007695679557954795EE81FF810190F08163
:101DC000E02DCE0119958FEF8A8FDF91CF911F9172
:101DD0000F91FF90EF90DF90CF90BF90AF909F90CA
:101DE0008F900895C501B401A70196010E94B71212
:101DF00029AB3AAB4BAB5CAB8FEF9FEFDC018E872F
:101E00009F87A88BB98BDFCFFC0180819181892BC3
:101E100089F0DB018D919C91892B49F481E090E060
:101E2000208531852617370721F080E0089581E06D
:101E300090E0089580E0FCCFCF93DF93FC01C08158
:101E4000D1812097C1F08A819B81AC81BD81892B92
:101E50008A2B8B2BB9F48881998191838083888127
:101E60009981892B61F411861086828D8F3F19F03C
:101E700090E00E943F0DCE01DF91CF91089519822D
:101E80001882F9CFD0E0C0E0F6CF0F931F93CF9325
:101E9000DF93EC014E855F8568897989A881B981D6
:101EA000EE81FF814F3FDFEF5D076D077D07E9F0B2
:101EB00076956795579547950190F081E02D10979D
:101EC00079F012960D911D912D913C911597401727
:101ED00051076207730710F48A019B01B901A80139
:101EE000DF91CF911F910F911994109751F0129695
:101EF0004D915D916D917C9115970190F081E02D50
:101F0000EFCF0480F581E02DDF91CF911F910F91EC
:101F100019940F931F93CF93DF93EC018B010E94D1
:101F2000040FDE01892B09F042C00E94BA0AE017B3
:101F3000F107E1F5888599858017910749F490E0CC
:101F400080E0AC17BD0711F09A2F8B2F98878987F7
:101F5000808191818D939C930097A9F0DC0112966A
:101F60004D915D916D917C91159702811381248132
:101F70003581400F511F621F731F12964D935D9361
:101F80006D937C9315971182108211E0888199815D
:101F9000892B31F48A8D8F3F19F090E00E943F0D1C
:101FA000812FDF91CF911F910F910895DF01ED9166
:101FB000FC911197309709F0BACF10E0E7CF8F92DC
:101FC0009F92AF92BF92CF92DF92EF92FF921F93B8
:101FD000CF93DF93EC018E859F85A889B989AA27C5
:101FE000BB27892B8A2B8B2B11F40E94BA0A1FB7AF
:101FF000F894EE81FF810280F381E02DCE011995E6
:102000006B017C018E859F85A889B9898A889B8808
:10201000AC88BD88B701A601C814D904EA04FB0442
:1020200048F40196A11DB11DAC01BD014C0D5D1D13
:102030006E1D7F1D8E899F89A88DB98D881999097C
:10204000AA09BB094C015D01840E951EA61EB71E90
:10205000C501B4016E8B7F8B888F998FCA8ADB8A0A
:10206000EC8AFD8AF89417FD7894DF91CF911F9147
:10207000FF90EF90DF90CF90BF90AF909F908F90A8
:102080000895DC011E964D915D916D917C91519763
:102090004F3F5F4F6F4F7F4F11F00C94DF0FDC010C
:1020A0001696ED91FC910280F381E02D1994CF9268
:1020B000DF92EF92FF920F931F93CF93DF93EC0188
:1020C000CA80DB80EC80FD800E9441108B019C0166
:1020D000E881F9813097B9F0BC01A8014C195D097C
:1020E0006E097F0982819381A481B5818417950748
:1020F000A607B707B8F0841B950BA60BB70B828316
:102100009383A483B5830A831B832C833D83C901F6
:10211000B801DF91CF911F910F91FF90EF90DF9069
:10212000CF900895481B590B6A0B7B0B12821382C8
:10213000148215820190F081E02D309721F3828185
:102140009381A481B581892B8A2B8B2B99F3CACFDC
:10215000FF920F931F93CF93DF93EC018B01FFB698
:10216000F8940E94040F892BA9F0CE010E94571009
:10217000B801CE010E94890F182FCE010E94450F91
:10218000F894F7FC7894812FDF91CF911F910F91F4
:10219000FF90089510E0F4CF4F925F926F927F927C
:1021A0008F929F92AF92BF92DF92EF92FF920F9326
:1021B0001F93CF93DF9300D000D0CDB7DEB79E83BF
:1021C0008D838B0129013A01DFB6F8948D819E81C0
:1021D0000E9457104B015C01B8018D819E810E94C5
:1021E000040F892B29F0B8018D819E810E94890FEF
:1021F000AD81BE811A968D919C91B0E0A0E08415CE
:102200009505A605B70538F5481A590A6A0A7B0AE2
:10221000F8014282538264827582ED80FE80D7018C
:102220008D919C911197892B39F45A968C918F3FFF
:1022300019F090E00E942F0DD80112968D919D917A
:102240000D90BC91A02D89839A83AB83BC83412CD4
:10225000512C320118C0412C512C3201D9CF42816E
:10226000538164817581440D551D661D771D8981DB
:102270009A81AB81BC8184179507A607B70740F008
:102280007F012A013B01D701ED91FC91309739F78D
:10229000D801ED93FC9389819A81AB81BC8184192B
:1022A0009509A609B7092C013D01D80112964D9256
:1022B0005D926D927C921597309771F142815381B6
:1022C00064817581441955096609770942835383EE
:1022D00064837583D7010D931C938D819E810E9429
:1022E000450FF894D7FC7894C501B40126960FB633
:1022F000F894DEBF0FBECDBFDF91CF911F910F913C
:10230000FF90EF90DF90BF90AF909F908F907F9065
:102310006F905F904F900895ED81FE811187008747
:10232000D9CF0F931F93CF93DF93EC018E859F85B9
:10233000A889B9898F3F9F4FAF4FBF4F09F441C064
:10234000CE010E944110AB01BC01E881F9813097B8
:1023500079F18A819B81AC81BD81028113812481C5
:102360003581800F911FA21FB31F841B950BA60BF5
:10237000B70B181619061A061B061CF54E855F8545
:102380006889798976956795579547958417950754
:10239000A607B70710F4AC01BD01EE81FF810190E3
:1023A000F081E02DCE01DF91CF911F910F91199413
:1023B0004E855F85688979897695679557954795A4
:1023C000ECCFE881F981309761F4CE010E94450F8E
:1023D0008AB5811131C0DF91CF911F910F910C947B
:1023E000D6068A819B81AC81BD8142815381648103
:1023F0007581840F951FA61FB71F8A839B83AC83AB
:10240000BD831282138214821582CE010E941C0F9A
:102410000097D9F2DC011696ED91FC91179718966A
:102420008D919C911995CE010E941C0F009781F708
:10243000CE010E945710E9CFDF91CF911F910F91EC
:102440000895EF92FF920F931F93EE24EA94FE2CCF
:1024500000E010E024E234EF40E050E060E085E589
:1024600092E00E9479128FEF80936F0214E2E12EC6
:1024700014EFF12E00E010E020E432E44FE050E0F1
:1024800065E572E084EC96E00E94740E1F910F9156
:10249000FF90EF9008950C94911170E060E0FC01C2
:1024A000838D0C94B502FC01838D0E940C03BC014A
:1024B00090E080E008950F931F93CF93FC01048D6B
:1024C000158D30E020E0041715072607370708F4BC
:1024D0008A01CFB7F894A80170E060E0FC01838D19
:1024E0000E942D02F894C7FD7894CF911F910F910F
:1024F0000895EF92FF920F931F93CF93DF93EC0118
:10250000862FBA01A9018B8F2FEB32E03F832E83F8
:10251000EE86FF86088B198B8E012BE432E10E9438
:10252000D301892B11F00E94BA0A4E855F85688914
:1025300079894F3F8FEF58076807780789F07695BC
:10254000679557954795EE81FF810190F081E02DC9
:10255000CE01DF91CF911F910F91FF90EF901994D1
:10256000DF91CF911F910F91FF90EF900895A1E21D
:102570001A2EAA1BBB1BFD010DC0AA1FBB1FEE1FFD
:10258000FF1FA217B307E407F50720F0A21BB30B48
:10259000E40BF50B661F771F881F991F1A9469F7C4
:1025A00060957095809590959B01AC01BD01CF0120
:1025B0000895A29FB001B39FC001A39F700D811D1C
:1025C0001124911DB29F700D811D1124911D08953C
:1025D0000E94D912460F571FC81FD91F08F4319601
:1025E0000895E894DF93CF93FC01DB010E94D91298
:1025F0007F936F93E9019A01AC01BF93AF933F932F
:102600002F93DF010E94D91226F46C1B7D0B820BE5
:10261000930B9E01EB01FC010E94E812AF91BF9168
:102620002F913F910E94E812BE01CF01F9012F9135
:102630003F91CF91DF910895002E083090F0982FB0
:10264000872F762F652F542F432F322F22270850A4
:10265000F4CF220F331F441F551F661F771F881F9B
:10266000991F0A95B2F7002D089597FD1094002E3A
:10267000083098F00850232F342F452F562F672FFE
:10268000782F892F912DF4CF15949795879577956D
:10269000679557954795379527950A95AAF7112479
:1026A000002D08952A193B094C095D096E097F091F
:1026B000800B910B08952A153B054C055D056E05B1
:1026C0007F058007910708950024A7FD00942A172D
:1026D000300540055005600570058005900508959A
:1026E0000F931F93CF93DF93182F092FEB018B814B
:1026F00081FD09C01FEF0FEF812F902FDF91CF9148
:102700001F910F91089582FF14C02E813F818C810B
:102710009D81281739073CF4E881F981CF010196A2
:102720009983888310838E819F8101969F838E83F6
:10273000E3CFE885F985812F1995892BA1F3DACFAD
:102740000F931F93CF93DF93CDB7DEB7AE01485FF2
:102750005F4FDA016D917D91AD010DEF16E0F8014B
:1027600082819381DC0113962C9113972860139634
:102770002C930E94F213D8011296ED91FC912381C3
:10278000277F2383DF91CF911F910F9108950F939E
:102790001F93CF93DF93E091FF06F0910007238111
:1027A000EC0110E000E021FD08C00FEF1FEF14C0A6
:1027B0001995892B11F00FEF1FEF89916091FF069A
:1027C00070910007DB011896ED91FC918111F0CF1B
:1027D0008AE01995892B49F7C801DF91CF911F91A4
:1027E0000F9108952F923F924F925F926F927F9236
:1027F0008F929F92AF92BF92CF92DF92EF92FF9211
:102800000F931F93CF93DF9300D000D000D01F927F
:102810001F92CDB7DEB77C013B018A01FC01178214
:102820001682838181FFDDC1CE0101965C01F70133
:102830009381F30193FD859193FF81913F0188235B
:1028400009F453C1853239F493FD859193FF819149
:102850003F01853229F4B70190E00E947013E7CF61
:10286000912C212C312CFFE1F31538F08B3211F132
:1028700090F4803209F1833229F137FC3CC020ED1D
:10288000280F2A3050F536FE20C08AE0989E200D91
:102890001124922E06C08D3291F0803371F7689426
:1028A00030F8F30193FD859193FF81913F018111F0
:1028B000DACF21C0689431F8689432F8F2CF689486
:1028C00033F8EFCF689434F8ECCFEAE02E9E200D79
:1028D0001124222E689435F8E4CF8E3229F436FC88
:1028E00004C1689436F8DDCF8C3619F4689437F853
:1028F000D8CF8836B1F2982F9F7D95549330E0F071
:102900008336A1F18337C1F1833509F063C0280113
:10291000F2E04F0E511CF801C080D180692D70E0AB
:1029200036FC02C06FEF7FEFC6010E94F4154C0128
:10293000689437F882010AC00C5F1F4FFFE3F983E8
:1029400088248394912C6501E89437F833FE2DC0D8
:10295000522C8114910471F5552009F468CFB70108
:1029600080E290E00E9470135A94F6CFF8018081C3
:1029700089830E5F1F4FE4CF2801F2E04F0E511CF8
:10298000F801C080D180692D70E036FC02C06FEF85
:102990007FEFC6010E94FF154C018201D5CFB70120
:1029A00080E290E00E9470132A942814190409F020
:1029B000B0F7CECFF60137FC859137FE81916F01DC
:1029C000B70190E00E94701351105A94F1E08F1AF1
:1029D0009108BFCF843619F0893609F077C0F80125
:1029E00037FE6BC060817181828193810C5F1F4FC4
:1029F000F32DFF763F2E97FF09C090958095709537
:102A000061957F4F8F4F9F4F689437F82AE030E0F1
:102A1000A5010E940A16C82ECA188C2C432C36FE1B
:102A20000CC0E89440F8C91440F434FE05C032FCF0
:102A300003C0F32DFE7E4F2E892C44FEAAC0FE015A
:102A4000EC0DF11D8081803309F09CC0242D297E7E
:102A5000422E842D8870582E43FCAAC040FEA4C08C
:102A60009C2C821418F42C0C922C981844FEA6C0AE
:102A7000B70180E390E00E94701342FE09C088E72E
:102A800090E041FE02C088E590E0B7010E9470131B
:102A9000C91408F49FC0CA94D12C9FEFC91AD90A4F
:102AA000CA0CDB1CF60182916F01B70190E00E9415
:102AB0007013AC14BD04B1F74FCF60817181072E44
:102AC000000C880B990B0E5F1F4F92CFD32CE8940C
:102AD000D4F82AE030E08537E1F1232D297FD22E8A
:102AE0008F36A9F1F0F4883551F1F701868197818D
:102AF0002B960FB6F894DEBF0FBECDBFDF91CF91FE
:102B00001F910F91FF90EF90DF90CF90BF90AF900B
:102B10009F908F907F906F905F904F903F902F90FD
:102B20000895803749F0883701F7D4FE02C06894D1
:102B3000D2F820E130E00DC06894D4F8F6CF34FE2E
:102B400003C0822F8660D82E20E132E002C028E048
:102B500030E0F801D7FE0FC06081718182819381DE
:102B60000C5F1F4FA5010E940A16C82ECA183D2CE3
:102B7000E89437F852CF6081718190E080E00E5F79
:102B80001F4FF0CF42FC02C0839463CF83948394A1
:102B900060CF842D867809F45CCFF6CFB70180E250
:102BA00090E00E94701383948214C0F3512C5ECF86
:102BB000522C5818821408F459CFF8CF842D8678F7
:102BC00009F466CF8BE241FE80E247FC8DE2B7015B
:102BD00090E05CCFB70180E390E00E9470139A947C
:102BE00057CF8FEF9FEF84CFFC010590615070406D
:102BF0000110D8F7809590958E0F9F1F0895FC01C6
:102C00006150704001900110D8F7809590958E0F1B
:102C10009F1F0895FA01AA27283051F1203181F130
:102C2000E8946F936E7F6E5F7F4F8F4F9F4FAF4FD4
:102C3000B1E03ED0B4E03CD0670F781F891F9A1FE7
:102C4000A11D680F791F8A1F911DA11D6A0F711D9B
:102C5000811D911DA11D20D009F468943F912AE0A7
:102C6000269F11243019305D3193DEF6CF0108958F
:102C7000462F4770405D4193B3E00FD0C9F7F6CFC0
:102C8000462F4F70405D4A3318F0495D31FD405288
:102C9000419302D0A9F7EACFB4E0A695979587951E
:102CA00077956795BA95C9F70097610571050895FD
:102CB0009B01AC010A2E06945795479537952795A9
:102CC000BA95C9F7620F731F841F951FA01D089541
:042CD000F894FFCFA6
:102CD400000005072000A000720039000000000079
:102CE4000000200173003A00000000000000800092
:102CF4006F0036000000000000000000000100002A
:102D040000000000D90700000000000200000000DD
:102D1400EC070000000001010101008406400000EE
:102D2400000000000000000000000000000000009F
:102D3400000000000000000000000000000000008F
:102D4400000A00211268656C6C6F20776F726C64E6
:102D54000042414449535200C000C8000C0053547F
:102D640041434B204F564552464C4F57004641492C
:102D74004C454420415353455254494F4E2E00690B
:102D8400646C65006D61696E004B0E150E0D0E5B73
:062D94001253124D120063
:0400000300000C9C51
:00000001FF
