:100000000C94E8010C9413020C9413020C94130248
:100010000C9413020C9413020C9413020C9413020C
:100020000C9413020C9413020C9413020C941302FC
:100030000C9413020C9413020C9413020C941302EC
:100040000C9413020C9482050C94B1050C94E005F9
:100050000C9413020C9413020C9413020C941302CC
:100060000C9413020C94AE060C9413020C940A0721
:100070000C9413020C9413020C9413020C941302AC
:100080000C9413020C9413020C9413020C9413029C
:100090000C94DC060C9413020C9435070C94130298
:1000A0000C9413020C9413020C9468040C9497049F
:1000B0000C94C6040C9413020C9413020C94F504D3
:1000C0000C9424050C9453050C9413020C94130205
:1000D0000C9413020C9413020C9413020C9413024C
:1000E0000C9413020C9413020C9413020C9413023C
:1000F0000C9413020C9413020C9413020C9413022C
:100100000C9413020C9413020C9413020C9413021B
:100110000C9413020C9413020C9413020C94EF022F
:100120000C9413020C9413020C9413020C941302FB
:100130000C9413020C94FF150C9407160C941502E2
:100140000C94FF0A0C94C9110C942E0C0C941F0CE7
:100150000C943E020C9445150C94D5150C9437095B
:100160000C946B160C9424090C94C1110C940F166A
:100170000C9410110C94FF110C94011653656E64CD
:1001800020696E74657276616C2075706461746547
:100190006420746F202564207365636F6E64730A36
:1001A000004572726F723A206D757374206265201B
:1001B000706F7369746976650A0055736167653A93
:1001C0002074696D65203C7365636F6E64733E0ACD
:1001D000005468697320626F61726420666561749F
:1001E000757265732061286E292025732043505550
:1001F0002E0A00596F75206172652072756E6E69E6
:100200006E672052494F54206F6E2061286E29205E
:10021000257320626F6172642E0A004549465220A0
:1002200025233032780A5043494652202523303264
:10023000780A005343495251532025233032780A1B
:100240004241544D4F4E2025233032780A00495206
:10025000515F535441545553312025233032780A8D
:10026000004952515F535441545553202523303295
:10027000780A00000306080A7363686564756C6594
:100280007228293A20737461636B206F76657266F9
:100290006C6F772064657465637465642C20706985
:1002A000643D25690A003078256C78203D3E2000A9
:1002B0006D61696E28293A2054686973206973203A
:1002C00052494F5421202856657273696F6E3A2047
:1002D000323032352E30312D646576656C2D3339F0
:1002E000332D676365666131290A002A2A2A20684E
:1002F000616C7465642E0A0A002A2A2A2052494F2A
:1003000054206B65726E656C2070616E69633A0A89
:1003100025730A0A007368656C6C3A206D61786910
:100320006D756D206C696E65206C656E67746820F4
:1003300065786365656465640A00252D3230532055
:1003400025530A00252D3230732025730A00436F90
:100350006D6D616E64202020202020202020202030
:100360002020204465736372697074696F6E0A2D72
:100370002D2D2D2D2D2D2D2D2D2D2D2D2D2D2D2DAD
:100380002D2D2D2D2D2D2D2D2D2D2D2D2D2D2D2D9D
:100390002D2D2D2D2D2D0A007368656C6C3A206370
:1003A0006F6D6D616E64206E6F7420666F756E6424
:1003B0003A2025730A007368656C6C3A20696E6395
:1003C0006F72726563742071756F74696E670A006D
:1003D000832D8093E709822D8093E80911241FBEA5
:1003E000CFEFD1E8DEBFCDBF00E00CBF13E0A0E04F
:1003F000B2E0EEE3F6E300E00BBF02C007900D921F
:10040000A632B107D9F729E0A6E2B3E001C01D92F8
:10041000A73EB207E1F70E9499070C941D1B0E94AA
:1004200071020C941D1B0C94BB02029759F08AEBCD
:1004300091E09F938F930E9455180F900F9090E03A
:1004400080E00895FB01828193810E94A81718160D
:1004500019061CF081EA91E0ECCF9093070280939B
:1004600006029F938F938CE791E09F938F930E9456
:1004700055180F900F900F900F90E1CFC0911D0372
:10048000D0911E03C0900602D09007020D2C000CE4
:10049000EE08FF0887ECC81680E1D806E104F104F5
:1004A00090F4A701960160E472E48FE090E00E946E
:1004B000C016AB01BC01CE010E946D1687E792E029
:1004C0000E947C18DFCF40E85DE361EF7FEFCE0153
:1004D0000E946D1686ECC81A80E1D80AE108F1087E
:1004E000D9CFCF93DF93CDB7DEB7C058D1090FB6C0
:1004F000F894DEBF0FBECDBF84E892E00E947C1866
:100500008AE992E09F938F9383EF91E09F938F937B
:100510000E94551883EA92E09F938F9381ED91E0BA
:100520009F938F930E94551881EBC82E82E0D82E9E
:10053000F12CE12C0EE312E030E020E046E064E82C
:1005400072E086E293E00E94540B0FB6F894DEBF8F
:100550000FBECDBF40E850E0BE016F5F7F4F8EEC15
:1005600092E00E94DA10F6CF0895E1E6F0E080E82C
:1005700080831082089580914F011F928F9381E6AE
:1005800092E09F938F930E9455188091BF001F9215
:100590008F938EE492E09F938F930E9455189091D1
:1005A00051018091E0001F929F931F928F9383E3EC
:1005B00092E09F938F930E9455189BB38CB31F9228
:1005C0009F931F928F938BE192E09F938F930E9452
:1005D000551874986AED72E080E00E945B0C1F92DF
:1005E0000F920FB60F9211240BB60F922F933F93D9
:1005F0004F935F936F937F938F939F93AF93BF932B
:10060000EF93FF938AB58F5F8ABD0E948C08FF919C
:10061000EF91BF91AF919F918F917F916F915F917A
:100620004F913F912F910F900BBE0F900FBE0F90E7
:100630001F9018958AB58F5F8ABD08954F925F927B
:100640006F927F928F929F92AF92BF920F931F9360
:10065000CF93DF938330F0F4D0E0C0E0812C94E2BC
:10066000992E94EFA92EB12CFE01ED58FD4F9491D7
:100670002401350104C076946794579447949A9561
:10068000D2F7441655066606770699F02196C530CE
:10069000D10551F78FEF9FEFDF91CF911F910F9110
:1006A000BF90AF909F908F907F906F905F904F9092
:1006B00008959CE0899FF0011124E85FFD4FA0811F
:1006C000B1811C9211961C92119712961C9212974E
:1006D00015961C921E9214973783268311870087E4
:1006E0006C2F6F5F628711966C9390E080E0D4CF9F
:1006F0008F929F92AF92BF92CF92DF92EF92FF9232
:100700000F931F93CF93DF935B0163E0A616B104B1
:100710000CF073C07FB7F8949CE0899F900111247E
:10072000F901E85FFD4F6F01A081B18114962D9111
:100730003C911597240F351FE501CC0FDD1FCA0F23
:10074000DB1F3987288785010F5F1F4F882483941B
:10075000912C740102C0EE0CFF1C0A95E2F7870190
:10076000E480F580F7010083F601C280D380F601B2
:100770009081902B9083F40102C0EE0FFF1FAA948A
:10078000E2F763E0869FC001112402C0EE0FFF1F55
:100790008A95E2F78091AA059091AB05E82BF92B99
:1007A000F093AB05E093AA0514968D919C91159753
:1007B000281B390B42175307C0F0F89477FD789443
:1007C00090E080E0DF91CF911F910F91FF90EF902B
:1007D000DF90CF90BF90AF909F908F900895149628
:1007E0008D919C91159799878887F701808190E07A
:1007F00080239123892B99F3E0CF8FEF9FEFE2CFF6
:1008000063307105C4F49CE0899FF0011124E85F16
:10081000FD4F0280F381E02D20816F5F7F4F81E0EB
:1008200090E001C0880F6A95EAF780958223808363
:1008300090E080E008958FEF9FEF08950F931F934E
:10084000CF93DF93162F072FC82FD0E021E030E0A1
:10085000062E02C0220F331F0A94E2F793E0899F0D
:10086000A001112402C0220F331F4A95E2F74091E4
:10087000AA055091AB0524233523232B11F00E94A8
:1008800000048CE08C9FD0018D9FB00D1124A85FD7
:10089000BD4F1696ED91FC911797612F702F18960A
:1008A0008D919C91DF91CF911F910F9119942FB74A
:1008B000F8949CE0899FF0011124E85FFD4F0190BE
:1008C000F081E02D84819581F89427FD7894089536
:1008D0001F920F920FB60F9211240BB60F922F9307
:1008E0003F934F935F936F937F938F939F93AF93B8
:1008F000BF93EF93FF930E941A0370E060E080E0E3
:100900000E941E040E948C08FF91EF91BF91AF914D
:100910009F918F917F916F915F914F913F912F9117
:100920000F900BBE0F900FBE0F901F9018951F9247
:100930000F920FB60F9211240BB60F922F933F9385
:100940004F935F936F937F938F939F93AF93BF93D7
:10095000EF93FF930E941A0361E070E080E00E9431
:100960001E040E948C08FF91EF91BF91AF919F915F
:100970008F917F916F915F914F913F912F910F9048
:100980000BBE0F900FBE0F901F9018951F920F92E5
:100990000FB60F9211240BB60F922F933F934F93E4
:1009A0005F936F937F938F939F93AF93BF93EF93D7
:1009B000FF930E941A0362E070E080E00E941E0430
:1009C0000E948C08FF91EF91BF91AF919F918F9101
:1009D0007F916F915F914F913F912F910F900BBE3F
:1009E0000F900FBE0F901F9018951F920F920FB689
:1009F0000F9211240BB60F922F933F934F935F9357
:100A00006F937F938F939F93AF93BF93EF93FF93D6
:100A10000E941A0370E060E081E00E941E040E94C0
:100A20008C08FF91EF91BF91AF919F918F917F9132
:100A30006F915F914F913F912F910F900BBE0F904F
:100A40000FBE0F901F9018951F920F920FB60F9226
:100A500011240BB60F922F933F934F935F936F9395
:100A60007F938F939F93AF93BF93EF93FF930E94D6
:100A70001A0361E070E081E00E941E040E948C086D
:100A8000FF91EF91BF91AF919F918F917F916F9166
:100A90005F914F913F912F910F900BBE0F900FBE22
:100AA0000F901F9018951F920F920FB60F9211245E
:100AB0000BB60F922F933F934F935F936F937F9358
:100AC0008F939F93AF93BF93EF93FF930E941A036B
:100AD00062E070E081E00E941E040E948C08FF9199
:100AE000EF91BF91AF919F918F917F916F915F91A6
:100AF0004F913F912F910F900BBE0F900FBE0F9013
:100B00001F9018951F920F920FB60F9211240BB6DB
:100B10000F922F933F934F935F936F937F938F9396
:100B20009F93AF93BF93EF93FF930E941A0370E0DC
:100B300060E082E00E941E040E948C08FF91EF9109
:100B4000BF91AF919F918F917F916F915F914F91E5
:100B50003F912F910F900BBE0F900FBE0F901F90E3
:100B600018951F920F920FB60F9211240BB60F9289
:100B70002F933F934F935F936F937F938F939F93A5
:100B8000AF93BF93EF93FF930E941A0361E070E06D
:100B900082E00E941E040E948C08FF91EF91BF9199
:100BA000AF919F918F917F916F915F914F913F9105
:100BB0002F910F900BBE0F900FBE0F901F901895A6
:100BC0001F920F920FB60F9211240BB60F922F9314
:100BD0003F934F935F936F937F938F939F93AF93C5
:100BE000BF93EF93FF930E941A0362E070E082E0EC
:100BF0000E941E040E948C08FF91EF91BF91AF915B
:100C00009F918F917F916F915F914F913F912F9124
:100C10000F900BBE0F900FBE0F901F9018958AB5C6
:100C20008F5F8ABD0895FC01EE0FFF1FEF51FD4F4E
:100C30000190F081E02D6681880F991F880F991F20
:100C4000DC01A455BA4FED91FC91119712968D914C
:100C50009C911994EF92FF920F931F93CF93DF9380
:100C60007901823008F04BC030E020E09EB3992338
:100C700019F021503109D1F790E0FC01EE0FFF1F70
:100C8000EE0FFF1FE455FA4FF182E08213830283D7
:100C9000880F991FFC01EF51FD4FC081D18119824E
:100CA000188286E08A83DB01CA0180589B47A14EE7
:100CB000BF4FE3E0880F991FAA1FBB1FEA95D1F72A
:100CC0009A01AB01F4E0220F331F441F551FFA9520
:100CD000D1F7BC01CD010E94E416215031093D83BA
:100CE0002C8388EDEF2809F488E4898390E080E084
:100CF000DF91CF911F910F91FF90EF90089584EDB8
:100D00009FEFF6CFCF93DF9391E0082E01C0990FAC
:100D10000A94EAF7DB01460F571FE82FF0E0EE0FC9
:100D2000FF1FEF51FD4F9F01A417B50719F4DF9185
:100D3000CF910895C081D181888185FFFDCF6FB7A4
:100D4000F8948EB3892B8EBBF89467FD7894E901F3
:100D5000688179818D91EB018E83E6CF1F920F928E
:100D60000FB60F9211240BB60F922F933F934F9310
:100D70005F936F937F938F939F93AF93BF93EF9303
:100D8000FF930E940F0690E080E00E9413060E94ED
:100D90008C08FF91EF91BF91AF919F918F917F91BF
:100DA0006F915F914F913F912F910F900BBE0F90DC
:100DB0000FBE0F901F9018951F920F920FB60F92B3
:100DC00011240BB60F922F933F934F935F936F9322
:100DD0007F938F939F93AF93BF93EF93FF930E9463
:100DE0000F0681E090E00E9413060E948C08FF919C
:100DF000EF91BF91AF919F918F917F916F915F9193
:100E00004F913F912F910F900BBE0F900FBE0F90FF
:100E10001F9018951F920F920FB60F9211240BB6C8
:100E20000F922F933F934F935F936F937F938F9383
:100E30009F93AF93BF93EF93FF930E940F06F09899
:100E40000E948C08FF91EF91BF91AF919F918F917C
:100E50007F916F915F914F913F912F910F900BBEBA
:100E60000F900FBE0F901F9018951F920F920FB604
:100E70000F9211240BB60F922F933F934F935F93D2
:100E80006F937F938F939F93AF93BF93EF93FF9352
:100E90000E940F06F1980E948C08FF91EF91BF917C
:100EA000AF919F918F917F916F915F914F913F9102
:100EB0002F910F900BBE0F900FBE0F901F901895A3
:100EC0000F931F93CF93DF93C7E7D2E0C557D2406C
:100ED000D695C79510E000E0C017D10729F4DF913F
:100EE000CF911F910F910895F801EE0FFF1FEB585E
:100EF000FD4F0190F081E02D19950F5F1F4FECCF52
:100F00000E94B402A8950FB6F894A895809160004D
:100F1000886180936000109260000FBE0E94B5024D
:100F20000E9449090E945D0E1EBA1ABC8FB77894C0
:100F300008950E9480070E9460090C94310C240FD0
:100F4000351FF90131974FEA408331974EEF4083C7
:100F50004FEF5AE031974083319750833197108299
:100F60003197808331979083319710823197108227
:100F7000319780E8808331971082319710823197C2
:100F800010822352310912922E173F07E1F7DF0139
:100F900011976C9311977C938AE18E938F5F8032C7
:100FA000E1F7CF01099708950E94130A8FB778944B
:100FB0008DB79EB72091040230910502821B930BDE
:100FC00090930102809300028091DD099091DE09E7
:100FD000892B41F480910202909103029093DE09E3
:100FE0008093DD09A091DA05B091DB05CD91CDBFED
:100FF000DD91DEBFFF91EF91DF91CF91BF91AF9176
:101000009F918F917F916F915F914F913F912F9120
:101010001F910F91FF90EF90DF90CF90BF90AF9016
:101020009F908F907F906F905F904F903F902F9008
:101030001F900F900CBE0F900BBE0F900FBE0F9025
:1010400008958AB5811161C00F920FB6F8940F927E
:101050000BB60F920CB60F921F9211242F923F9253
:101060004F925F926F927F928F929F92AF92BF92B8
:10107000CF92DF92EF92FF920F931F932F933F93A4
:101080004F935F936F937F938F939F93AF93BF9390
:10109000CF93DF93EF93FF93A091DA05B091DB0537
:1010A0000DB60D920EB60D920E94130AA091DA05AC
:1010B000B091DB05CD91CDBFDD91DEBFFF91EF910A
:1010C000DF91CF91BF91AF919F918F917F916F9160
:1010D0005F914F913F912F911F910F91FF90EF9052
:1010E000DF90CF90BF90AF909F908F907F906F9048
:1010F0005F904F903F902F901F900F900CBE0F90DD
:101100000BBE0F900FBE0F90089581E090E090937A
:10111000D9058093D80508958AB581508ABD8091FC
:10112000D8059091D905892B09F464C08AB581113D
:1011300061C00F920FB6F8940F920BB60F920CB6D7
:101140000F921F9211242F923F924F925F926F92B3
:101150007F928F929F92AF92BF92CF92DF92EF9247
:10116000FF920F931F932F933F934F935F936F9330
:101170007F938F939F93AF93BF93CF93DF93EF931F
:10118000FF93A091DA05B091DB050DB60D920EB676
:101190000D920E94130AA091DA05B091DB05CD9162
:1011A000CDBFDD91DEBFFF91EF91DF91CF91BF9178
:1011B000AF919F918F917F916F915F914F913F91EF
:1011C0002F911F910F91FF90EF90DF90CF90BF90E4
:1011D000AF909F908F907F906F905F904F903F90D7
:1011E0002F901F900F900CBE0F900BBE0F900FBE54
:1011F0000F90189508952EB3211109C081309105E3
:10120000B9F040F082309105B9F00397C9F083B787
:10121000817F03C083B7817F846083BF83B7816090
:1012200083BF78948895F89483B78E7F83BF0895A1
:1012300083B7817F8660F1CF83B7817F8C60EDCFEC
:1012400083B7817F8260E9CFCF93DF931F92CDB7C1
:10125000DEB761E070E0CE0101960E940A1189813B
:10126000082E000C990B0F90DF91CF910895CF932A
:10127000DF931F92CDB7DEB7898361E070E0CE01C6
:1012800001960E94221190E080E00F90DF91CF91B3
:1012900008950E94550CE1EEF9E08AE392E0938311
:1012A00082838CE292E09183808385EE92E00C94BD
:1012B0007C188DB188618DB98EB188618EB9089521
:1012C0000895EF92FF920F931F93CF93DF93EC015A
:1012D000F62EEFB6F89488819981892B89F48FEFE7
:1012E0009FEF99838883F894E7FC7894FF24F39424
:1012F0008F2DDF91CF911F910F91FF90EF90089567
:10130000611104C0F894E7FC7894F2CF0091DA05FB
:101310001091DB050115110511F40E94050C63E025
:10132000C8010E94630A88819981019669F4C80105
:10133000069699838883F80117821682F894E7FC51
:1013400078940E942108D4CFB801CE010E94360BB8
:10135000F5CF1F93CF93DF93EC011FB7F8948881EB
:101360009981009739F4F89417FD7894DF91CF9123
:101370001F9108958F3F980719F419821882F3CFAF
:10138000FC0120813181398328836CE006970E941B
:10139000630A88819981892B21F48FEF9FEF9983CC
:1013A0008883F89417FD7894DF91CF911F910C9466
:1013B0002108CF93DF93EC01A881B981109709F13F
:1013C0008D919C911197FD018617970779F4A617C7
:1013D000B70731F419821882CB01DF91CF910895BC
:1013E000FB01808191818D939C93F6CF0190F081D8
:1013F000E02D808191816817790731F0AE17BF0722
:10140000A9F770E060E0E8CF3097D9F3DB018D9168
:101410009C91918380838881998186179707E1F653
:10142000F983E883D9CFE091DA05F091DB051092DA
:10143000D9051092D8052091B4053091B50590E0FA
:1014400080E020FF30C0880F991FDC01A854BA4FFC
:101450000D90BC91A02D8D919C9106972BE0DC0105
:1014600012962C938E179F0769F1309701F1228114
:101470002B3011F42CE02283A489B5892D913C9165
:101480001197A217B30799F085818F9384818F9369
:1014900088E792E09F938F930E94551867EE72E061
:1014A00087E00E945B0C369527950196CACFFC0118
:1014B0002481358130932106209320069093DB050B
:1014C0008093DA0508951F93CF93DF93EC01162FD5
:1014D0008A816B3008F446C08B30E0F59E012A5FAC
:1014E0003F4F4B81842F90E0880F991FFC01E854F7
:1014F000FA4FA081B181109791F16D917C917F831A
:101500006E830190F081E02D3183208388549A4FBF
:10151000FC013183208381E090E0A0E0B0E004C0D2
:10152000880F991FAA1FBB1F4A95D2F74091B40597
:101530005091B5056091B6057091B705842B952B38
:10154000A62BB72B8093B4059093B505A093B60551
:10155000B093B7051A83DF91CF911F9108953F8310
:101560002E83D4CF8B30B0F38B8190E0880F991FFE
:10157000BE016A5F7F4F88549A4F0E94D9092B8120
:10158000E22FF0E0EE0FFF1FE854FA4F80819181C7
:10159000892B01F781E090E0A0E0B0E004C0880F63
:1015A000991FAA1FBB1F2A95D2F780959095A095E9
:1015B000B0954091B4055091B5056091B605709114
:1015C000B70584239523A623B723BCCFE091DA0582
:1015D000F091DB0522812B3028F023812817190692
:1015E00069F060F08AB5882339F081E090E090934B
:1015F000D9058093D80508950C94210808958FB7D4
:10160000F894E0912006F0912106EE0FFF1FE252C0
:10161000FA4F118210828091DC059091DD050197CF
:101620009093DD058093DC0560E08091DA05909170
:10163000DB050E94630A1092DB051092DA050E9416
:10164000D407CF938AB581110FC0CFB7F89462E069
:101650008091DA059091DB050E94630AF894C7FD3A
:101660007894CF910C942108CF910895FB012281A9
:101670002B3010F00E94050C6381AF014A5F5F4F71
:10168000DC012D913C912115310531F437832683FE
:10169000FC01518340830895D901169713967C91DC
:1016A0006717A0F3C901ECCF4F925F927F928F92A0
:1016B0009F92AF92BF92CF92DF92EF92FF920F93E1
:1016C0001F93CF93DF93FC012B01722EC80104EE10
:1016D0001FEF403108F076C09B012A513109EF011C
:1016E000C20FD31F73FE22C0F183E0839FB6F8942C
:1016F00060EE75E001E010E0DB01AD90BD90BD0152
:10170000AB28F1F00F5F1F4F01321105A9F7F894D4
:1017100097FC78940FEB1FEF55C0DB016D937C9322
:101720006E5F7F4F6C177D07C0F3E0CFBF01FACF2C
:1017300062E0CE010E94630AF89497FC789442C05C
:101740005601B701842E7F01F801EE0FFF1FE25210
:10175000FA4FD183C0831D830C83A7010E949F078A
:1017600099838883FD8AEC8A598E488EBF8AAE8A17
:101770008B821A821F821E82198618861B861A8601
:101780001D861C861F861E868FEF9FEF998B888B88
:101790001B8A1A8A8091DC059091DD050196909351
:1017A000DD058093DC0570FCC3CF6CE0CE010E94A8
:1017B000630A72FCC1CFF89497FC7894882D90E06E
:1017C0000E94E60AC801DF91CF911F910F91FF900F
:1017D000EF90DF90CF90BF90AF909F908F907F90D1
:1017E0005F904F9008958AB581110AC08FB787FF27
:1017F00007C086EF92E00E947C180E94210BFDCF6B
:1018000066EF72E083E00E945B0CB0E0AF919F91C5
:101810008F918F939F93AF930197A109B048880F41
:10182000991FAA1FBB1FBF93AF939F938F9386EA05
:1018300092E09F938F930E9455180E94F30B0E9491
:10184000600780EB92E09F938F930E9455180E944F
:1018500071020F900F9090E080E008950E945E0E5C
:10186000FDCF8FB7F89488E0C82E83E0D82EF12CF6
:10187000E12C0EE21CE024E030E04FE060EC70E090
:1018800082E296E00E94540B9DE0C92E93E0D92E8F
:101890000FE11CE024E030E047E064E872E082EE13
:1018A00096E00E94540B0E94D4070E9459090C94A0
:1018B000121108950895EB0120916609309167098E
:1018C000232BE1F421E030E030936709209366098F
:1018D0000E945A0CDF93CF9389EF92E09F938F93EE
:1018E0000E9455188BEE92E09F938F930E9455189B
:1018F0000F900F900F900F900F900F908FB7F8945C
:101900000E94590C0E949A0ECF92DF92EF92FF92A2
:10191000CF93DF936115710581059105C1F1F0E069
:10192000E0E0211531054105510561F49B01AC0151
:101930002EC09695879577956795569547953795D7
:10194000279531966B01C22AC0FEF3CF60FF28C0F5
:1019500020FF2BC0261737074807590750F4D62F0A
:10196000C72FB82FA92FCA01B9012D2F3C2F4B2FFC
:101970005A2F261B370B480B590B51F79B01AC0113
:1019800004C0220F331F441F551FEA95D2F7CA0126
:10199000B901DF91CF91FF90EF90DF90CF90089544
:1019A0009695879577956795D1CF569547953795B5
:1019B0002795CECF2F923F924F925F926F927F9258
:1019C0008F929F92AF92BF92CF92DF92EF92FF924F
:1019D0000F931F93CF93DF93CDB7DEB76F970FB6FB
:1019E000F894DEBF0FBECDBF9B8F8A8F6A017B014B
:1019F0003901D901C801AA27BB27892B8A2B8B2B38
:101A000011F40E94050CA9019801CB01B6010E94B6
:101A1000840C4B015C01C301B801A50194010E9433
:101A2000E41629833A834B835C83C701B601A50181
:101A300094010E94E4162F87388B498B5A8B898139
:101A40009A81AB81BC81AA27BB27892B8A2B8B2B40
:101A5000C1F2232B242B252B09F4F3C02F843888C3
:101A600090E080E0369427949C012F5F3F4F211433
:101A7000310409F06AC03A87298741E050E060E00C
:101A800070E08A019B01082E04C0000F111F221F65
:101A9000331F0A94D2F70B871C872D873E87E0E01F
:101AA000812C1E8EB0E0A0E0F0E0912C1F8E412C26
:101AB000512C32019C01205C3F4F3D8F2C8F29819E
:101AC0003A814B815C8189019A0109831A834B8396
:101AD0003C836C8D7D8D26163706C8F12E2F382D50
:101AE0004E8D5B2F6A2F7F2F892D9F8DA0E00E9446
:101AF0009C1729F07FEF471A570A670A770AAA8DC1
:101B0000BB8D4D925D926D927C92139780E2B98568
:101B10008B1BEA8DFB8D84836F960FB6F894DEBF26
:101B20000FBECDBFDF91CF911F910F91FF90EF902E
:101B3000DF90CF90BF90AF909F908F907F906F90ED
:101B40005F904F903F902F900895C9018BCF2E2F1B
:101B5000382D4E8D5B2F6A2F7F2F892D9F8D01E0B1
:101B60000E9454173B8B4C8B5D8B6E8B7F8B888FC9
:101B7000998FE22F832E4E8FB52FA62FF72F982EF9
:101B80009F8F440C551C661C771C4F8558896989AA
:101B90007A890B851C852D853E8540235123622340
:101BA0007323452B462B472B09F0E1602B853C85A1
:101BB0004D855E8556954795379527952B873C87AC
:101BC0004D875E8729813A814B815C8160E070E0BE
:101BD00080E090E0AE2EBB88CC88DD88EE88FF8860
:101BE000088D198D0E94931709F0F8F42E2F3B2DC4
:101BF000A601B701C801A980BA80CB80DC80E12CA6
:101C0000F12C00E010E00E948A17E22F832E4E8F05
:101C1000B52FA62FF72F982E9F8F689440F877FC4A
:101C20005DCF5FEF251A350A54CF4114510461048A
:101C30007104A9F749855A85415051095A87498746
:101C4000EECF412C512C32011A86198658CF0F93B2
:101C50001F93CF93DF93EC010E9497118C01CE016B
:101C600008960E94A909C801DF91CF911F910F9199
:101C70000895CF92DF92EF92FF920F931F93CF932D
:101C8000DF93EC018B017A016C0188E0C80ED11C56
:101C9000A701B801CE010E946911009749F0DF91B8
:101CA000CF911F910F91FF90EF90DF90CF9008950B
:101CB00061E0C6010E946109EBCF0895CF93CFB7D1
:101CC000F894E8E4F2E085E090E09C0121503109CD
:101CD0004481411107C03197C9010097B1F70E94B3
:101CE000FB0803C085309105D1F7F894C7FD7894BF
:101CF000CF9108952FB7F894FC01E85BFD4F8081E8
:101D00008F3F11F40E94050C8F5F8083F89427FDAC
:101D1000789408952FB7F894FC01E85BFD4F80811B
:101D2000811102C00E94050C81508083F89427FD28
:101D3000789408958FB7F89490E080E00E94FB08B3
:101D4000FBCFCF93DF93C1EED9E06A817B818EE335
:101D500090E00E9425186A817B8180E290E0DF910B
:101D6000CF910C9425182F923F924F925F926F92D1
:101D70007F928F929F92AF92BF92CF92DF92EF921B
:101D8000FF920F931F93CF93DF931F921F92CDB7B4
:101D9000DEB77C016B012DB73EB73A832983DB01A7
:101DA000FB0180E010E000E024E09D9191112BC048
:101DB0001082823008F45EC086EB93E09F938F938D
:101DC0000E9455180F900F9004EE1FEFC801E98193
:101DD000FA810FB6F894FEBF0FBEEDBF0F900F90C3
:101DE000DF91CF911F910F91FF90EF90DF90CF90F7
:101DF000BF90AF909F908F907F906F905F904F902B
:101E00003F902F9008958130D9F050F0823009F43E
:101E10002DC1833009F422C1822790833196C5CF2A
:101E2000903219F2993009F20F5F1F4F9732E1F0AB
:101E30009232E1F09C35E1F09083319681E0B5CFAC
:101E4000973291F0923291F09C3591F0AF014F5F53
:101E50005F4F903211F0993021F41082FA0180E046
:101E6000A4CF9083FA01A1CF82E09FCF83E09DCFE2
:101E700085E09BCF0115110509F4A8CF2DB63EB61C
:101E8000C8010196880F991FADB7BEB7A81BB90B43
:101E90000FB6F894BEBF0FBEADBFEDB7FEB731961B
:101EA0003F014F01B12CA12CA016B1060CF47BC050
:101EB000F801EE0FFF1FE60DF71D11821082F301EE
:101EC000508041806701E114F10409F07DC087E78B
:101ED00092E08757924066E070E00E94D0164B0176
:101EE000D12CC12C8C149D04D9F0F6E0FC9DC001CE
:101EF000FD9D900D11249C0129583D4F5901D90198
:101F00006D917C91852D942D0E94C617892B09F027
:101F100078C0D5011496ED91FC91309709F067C017
:101F2000652D742D82E193E00E94CF178C01892BDF
:101F300009F085C08EE493E09F938F930E9455181B
:101F40000F900F9024E4C22E23E0D22EE114F1046E
:101F500009F06FC0F12CE12C86E0B82E9AE3C92E6F
:101F600093E0D92E8E149F0409F445C0BE9CF00165
:101F7000BF9CF00D1124E958FD4F228133818081EF
:101F800091813F932F939F938F93DF92CF920E94E3
:101F90005518BFEFEB1AFB0A0F900F900F900F90A0
:101FA0000F900F90DFCFD401CD92DD924D01C6018D
:101FB0000E94D8170196C80ED91EBFEFAB1ABB0AF4
:101FC00073CFB6E0CB0ED11CF601808191810097D2
:101FD00009F47DCF652D742D0E94CF17892B89F7C9
:101FE000D6011496ED91FC91309709F470CFB301AE
:101FF000C80119958C010FB6F8943EBE0FBE2DBED8
:10200000E5CEBFEFCB1ADB0A6DCFF70123812F930B
:1020100022812F939F938F93DF92CF920E94551826
:10202000F6E0EF0EF11C0F900F900F900F900F90B5
:102030000F90D7018D919C91009739F78BCF4F92DC
:102040005F9288E993E09F938F930E9455180F90B9
:102050000F900F900F9002ED1FEFCDCF923209F449
:10206000EDCE9C3509F0D9CE82279FCE9732C9F7A5
:10207000E5CE9F92AF92BF92CF92DF92EF92FF9206
:102080000F931F93CF93DF938C017B016115710533
:1020900011F40E94050C912CD0E0C0E05B0121E01E
:1020A000A21AB1086E01CE15DF0598F78091E109FB
:1020B0009091E2090E94E9178830910509F441C026
:1020C0006CF483309105C9F18430910521F08F3F84
:1020D000980709F05CC0CFEFDFEF22C08D3091058B
:1020E00039F08F37910569F18A30910509F04FC0B9
:1020F000F801EC0FFD1F10826091E3097091E40973
:102100008DE090E00E9425186091E3097091E40948
:102110008AE090E00E942518992011F0C6EDDFEFCB
:10212000CE01DF91CF911F910F91FF90EF90DF9043
:10213000CF90BF90AF909F900895912CD0E0C0E0D9
:10214000D7CF1C161D060CF0ADCF2197CE15DF059D
:1021500028F4F801EC0FFD1F1082912C6091E30927
:102160007091E40988E090E00E9425186091E309ED
:102170007091E40980E290E00E9425186091E309E3
:102180007091E40988E090E00E9425188BCFCA1571
:10219000DB0568F42196F801EC0DFD1D808360914C
:1021A000E3097091E409082E000C990BEDCF9924F6
:1021B0009394F5CFCF92DF92EF92FF920F931F93FC
:1021C000CF93DF937C01EB016A010E94A10E05E130
:1021D00013E0B601CE010E943910863D2FEF920721
:1021E00039F0019671F0BE01C7010E94B30E06C01E
:1021F0001F930F930E9455180F900F900E94A10EED
:10220000E8CFDF91CF911F910F91FF90EF90DF907A
:10221000CF900895AB01BC018DE492E00C94390E8F
:102220000C94270E0F931F930DE412E020E131E18F
:1022300040E052EC61E070E080E00E942A061F91CD
:102240000F910895CF93DF93EB01AB01BC0180E0C8
:102250000E948206CE01DF91CF910895FC012FB735
:10226000F89481E090E0648175814681578164171C
:10227000750711F090E080E0F89427FD78940895B8
:10228000FC014FB7F8942681378184819581281B02
:10229000390B81E090E0628173812617370711F0D6
:1022A00090E080E0F89447FD78940895FC01208147
:1022B000318144815581CA0101969583848382814D
:1022C0009381019784239523820F931FFC018081C2
:1022D0000895BF92CF92DF92EF92FF920F931F93D8
:1022E000CF93DF936C017A01BFB6F8948B01EA01BA
:1022F000209729F0C6010E942E11892B81F0F894B5
:10230000B7FC7894C7018C1B9D0BDF91CF911F9177
:102310000F91FF90EF90DF90CF90BF900895C6018E
:102320000E945611F80181938F012197E1CF0F93FD
:102330001F93CF93DF93EC01062F1FB7F8940E94F1
:1023400040110097D9F4488159816E817F819B01AA
:102350002F5F3F4F3F832E832A813B8121503109DC
:1023600026233723240F351FF9010083F89417FD26
:102370007894DF91CF911F910F9108958FEF9FEF88
:10238000F5CFBC01635E7F4FFC01838D948D0C946F
:102390005C140F93CF93DF93EC018B8D9C8DDC014C
:1023A0001E964D915D916D917C9151974F3F5F4F7E
:1023B0006F4F7F4FD9F00E9493136115710581050E
:1023C000910581F02FA138A549A55AA50E9429178A
:1023D0000BA50E946F17A32FF42FE52F622F7A2FE2
:1023E0008F2F9E2FDF91CF910F910895DC011696CC
:1023F000ED91FC910280F381E02D1995DECF0F93D2
:102400001F93CF93DF93EC0189A99AA9ABA9BCA92B
:102410008A019B01080F191F2A1F3B1FC901B80120
:102420002CA53DA54EA55FA50E94291708A90E94CD
:102430006F17F22FE32FBE01635E7F4F2F2F3E2FCA
:102440008B8D9C8DDF91CF911F910F910C948014F7
:102450008F929F92AF92BF92CF92DF92EF92FF92B4
:102460000F931F93CF93DF93EC0149015A0167014A
:10247000780185E3FE0111928A95E9F787E193E0FF
:102480009F838E837C8F6B8F85E495E19CA38BA3C8
:10249000DEA3CDA3DA01C901AA27BB27892B8A2B8A
:1024A0008B2B11F40E94050CD801C601AA27BB276B
:1024B000892B8A2B8B2BB1F398018601BA01A401D9
:1024C000CE0187960E94DA0C95018401B701A6011E
:1024D000CE018C960E94DA0C8C149D04AE04BF04CD
:1024E000A8F56FA178A589A59AA52FEF3FEFA901BF
:1024F0000E9429170BA50E946F17942F852FA90101
:10250000692F782F4E875F87688B798B4F3FFFEF5E
:102510005F076F077F0759F0769567955795479541
:10252000EE81FF810190F081E02DCE0119958FEFB2
:102530008A8FDF91CF911F910F91FF90EF90DF90E5
:10254000CF90BF90AF909F908F900895C501B40138
:10255000A70196010E94E41629AB3AAB4BAB5CABEA
:102560008FEF9FEFDC018E879F87A88BB98BDFCF22
:10257000FC0180819181892B89F0DB018D919C91F7
:10258000892B49F481E090E02085318526173707B3
:1025900021F080E0089581E090E0089580E0FCCF94
:1025A000CF93DF93FC01C081D1812097C1F08A8154
:1025B0009B81AC81BD81892B8A2B8B2BB9F48881BF
:1025C00099819183808388819981892B61F4118617
:1025D0001086828D8F3F19F090E00E948A0ECE0106
:1025E000DF91CF91089519821882F9CFD0E0C0E031
:1025F000F6CF0F931F93CF93DF93EC014E855F854A
:1026000068897989A881B981EE81FF814F3FDFEF29
:102610005D076D077D07E9F07695679557954795B6
:102620000190F081E02D109779F012960D911D9197
:102630002D913C911597401751076207730710F4CD
:102640008A019B01B901A801DF91CF911F910F91E0
:102650001994109751F012964D915D916D917C9166
:1026600015970190F081E02DEFCF0480F581E02DEA
:10267000DF91CF911F910F9119940F931F93CF93D7
:10268000DF93EC018B010E94B812DE01892B09F067
:1026900042C00E94050CE017F107E1F58885998595
:1026A0008017910749F490E080E0AC17BD0711F066
:1026B0009A2F8B2F98878987808191818D939C9306
:1026C0000097A9F0DC0112964D915D916D917C917E
:1026D00015970281138124813581400F511F621F9C
:1026E000731F12964D935D936D937C931597118292
:1026F000108211E088819981892B31F48A8D8F3F76
:1027000019F090E00E948A0E812FDF91CF911F91E6
:102710000F910895DF01ED91FC911197309709F029
:10272000BACF10E0E7CF8F929F92AF92BF92CF9235
:10273000DF92EF92FF921F93CF93DF93EC018E8590
:102740009F85A889B989AA27BB27892B8A2B8B2B20
:1027500011F40E94050C1FB7F894EE81FF810280EE
:10276000F381E02DCE0119956B017C018E859F854B
:10277000A889B9898A889B88AC88BD88B701A601D9
:10278000C814D904EA04FB0448F40196A11DB11D44
:10279000AC01BD014C0D5D1D6E1D7F1D8E899F8995
:1027A000A88DB98D88199909AA09BB094C015D0149
:1027B000840E951EA61EB71EC501B4016E8B7F8BBD
:1027C000888F998FCA8ADB8AEC8AFD8AF89417FD74
:1027D0007894DF91CF911F91FF90EF90DF90CF9091
:1027E000BF90AF909F908F900895DC011E964D9101
:1027F0005D916D917C9151974F3F5F4F6F4F7F4F30
:1028000011F00C949313DC011696ED91FC9102806B
:10281000F381E02D1994CF92DF92EF92FF920F9304
:102820001F93CF93DF93EC01CA80DB80EC80FD80A7
:102830000E94F5138B019C01E881F9813097B9F072
:10284000BC01A8014C195D096E097F098281938141
:10285000A481B58184179507A607B707B8F0841B34
:10286000950BA60BB70B82839383A483B5830A834E
:102870001B832C833D83C901B801DF91CF911F9148
:102880000F91FF90EF90DF90CF900895481B590B68
:102890006A0B7B0B12821382148215820190F081E5
:1028A000E02D309721F382819381A481B581892B1A
:1028B0008A2B8B2B99F3CACFFF920F931F93CF9341
:1028C000DF93EC018B01FFB6F8940E94B812892BBC
:1028D000A9F0CE010E940B14B801CE010E943D1355
:1028E000182FCE010E94F912F894F7FC7894812FEA
:1028F000DF91CF911F910F91FF90089510E0F4CFD9
:102900004F925F926F927F928F929F92AF92BF92FF
:10291000DF92EF92FF920F931F93CF93DF9300D03C
:1029200000D0CDB7DEB79E838D838B0129013A019C
:10293000DFB6F8948D819E810E940B144B015C01DF
:10294000B8018D819E810E94B812892B29F0B801AF
:102950008D819E810E943D13AD81BE811A968D911D
:102960009C91B0E0A0E084159505A605B70538F563
:10297000481A590A6A0A7B0AF80142825382648221
:102980007582ED80FE80D7018D919C911197892BE6
:1029900039F45A968C918F3F19F090E00E947A0E8C
:1029A000D80112968D919D910D90BC91A02D898397
:1029B0009A83AB83BC83412C512C320118C0412C2B
:1029C000512C3201D9CF4281538164817581440DEC
:1029D000551D661D771D89819A81AB81BC81841745
:1029E0009507A607B70740F07F012A013B01D701F1
:1029F000ED91FC91309739F7D801ED93FC938981E3
:102A00009A81AB81BC8184199509A609B7092C016B
:102A10003D01D80112964D925D926D927C92159770
:102A2000309771F142815381648175814419550950
:102A3000660977094283538364837583D7010D93B5
:102A40001C938D819E810E94F912F894D7FC789492
:102A5000C501B40126960FB6F894DEBF0FBECDBFF8
:102A6000DF91CF911F910F91FF90EF90DF90BF907A
:102A7000AF909F908F907F906F905F904F90089550
:102A8000ED81FE8111870087D9CF0F931F93CF93DC
:102A9000DF93EC018E859F85A889B9898F3F9F4F71
:102AA000AF4FBF4F09F441C0CE010E94F513AB01F7
:102AB000BC01E881F981309779F18A819B81AC81F1
:102AC000BD810281138124813581800F911FA21F56
:102AD000B31F841B950BA60BB70B181619061A0605
:102AE0001B061CF54E855F85688979897695679503
:102AF0005795479584179507A607B70710F4AC01BB
:102B0000BD01EE81FF810190F081E02DCE01DF91CA
:102B1000CF911F910F9119944E855F8568897989AE
:102B20007695679557954795ECCFE881F981309771
:102B300061F4CE010E94F9128AB5811131C0DF9192
:102B4000CF911F910F910C9421088A819B81AC81B8
:102B5000BD814281538164817581840F951FA61FB9
:102B6000B71F8A839B83AC83BD8312821382148236
:102B70001582CE010E94D0120097D9F2DC01169680
:102B8000ED91FC91179718968D919C911995CE0116
:102B90000E94D012009781F7CE010E940B14E9CF5A
:102BA000DF91CF911F910F910895EF92FF920F93B4
:102BB0001F93EE24EA94FE2C00E010E024E234EFB0
:102BC00040E050E060E087E592E00E942D168FEF34
:102BD0008093710214E2E12E14EFF12E00E010E078
:102BE00020E432E44FE050E067E572E088EA99E0E3
:102BF0000E9428121F910F91FF90EF9008950C945E
:102C0000451570E060E0FC01838D0C940004FC012C
:102C1000838D0E945704BC0190E080E008950F93DB
:102C20001F93CF93FC01048D158D30E020E0041735
:102C300015072607370708F48A01CFB7F894A801CB
:102C400070E060E0FC01838D0E947803F894C7FD7A
:102C50007894CF911F910F910895EF92FF920F9367
:102C60001F93CF93DF93EC01862FBA01A9018B8FBD
:102C70002FE133E03F832E83EE86FF86088B198B8E
:102C80008E012FEF35E10E941E03892B11F00E9467
:102C9000050C4E855F85688979894F3F8FEF58070E
:102CA0006807780789F07695679557954795EE817F
:102CB000FF810190F081E02DCE01DF91CF911F9136
:102CC0000F91FF90EF901994DF91CF911F910F9189
:102CD000FF90EF9008950C94A909CF92DF92EF92A4
:102CE000FF920F931F93CF93DF93CDB7DEB72C974F
:102CF0000FB6F894DEBF0FBECDBF2AB521110E94DA
:102D0000050C2FEF3FEF3C872B87FE01319626E025
:102D1000DF011D922A95E9F72BE636E138872F83EC
:102D20008E01055F1F4F1A870987DC011C96CD9025
:102D3000DC90F12CE12CC416D506E606F706E0F48B
:102D40009A01AB012C193D094E095F09BF010E9490
:102D5000801461E0C8010E9461092C960FB6F894B6
:102D6000DEBF0FBECDBFDF91CF911F910F91FF90BE
:102D7000EF90DF90CF90089520E030E0A901E6CFFA
:102D8000DB018F939F930E941517BF91AF91A29F74
:102D9000800D911DA39F900DB29F900D1124089559
:102DA000AA1BBB1B51E107C0AA1FBB1FA617B70771
:102DB00010F0A61BB70B881F991F5A95A9F780958D
:102DC0009095BC01CD010895A1E21A2EAA1BBB1B50
:102DD000FD010DC0AA1FBB1FEE1FFF1FA217B307E7
:102DE000E407F50720F0A21BB30BE40BF50B661FFD
:102DF000771F881F991F1A9469F7609570958095C1
:102E000090959B01AC01BD01CF010895A29FB00137
:102E1000B39FC001A39F700D811D1124911DB29F0E
:102E2000700D811D1124911D08950E940617A59F04
:102E3000900DB49F900DA49F800D911D11240895B5
:102E40000E940617460F571FC81FD91F08F4319656
:102E50000895E894DF93CF93FC01DB010E940617ED
:102E60007F936F93E9019A01AC01BF93AF933F93B6
:102E70002F93DF010E94061726F46C1B7D0B820B3B
:102E8000930B9E01EB01FC010E942017AF91BF91B3
:102E90002F913F910E942017BE01CF01F9012F9180
:102EA0003F91CF91DF910895002E083090F0982F38
:102EB000872F762F652F542F432F322F222708502C
:102EC000F4CF220F331F441F551F661F771F881F23
:102ED000991F0A95B2F7002D089597FD1094002EC2
:102EE000083098F00850232F342F452F562F672F86
:102EF000782F892F912DF4CF1594979587957795F5
:102F0000679557954795379527950A95AAF7112400
:102F1000002D08952A193B094C095D096E097F09A6
:102F2000800B910B08952A153B054C055D056E0538
:102F30007F058007910708950024A7FD00942A17B4
:102F40003005400550056005700580059005089521
:102F5000FC0188279927E89421912032E9F3293050
:102F600010F02E30C8F32B3241F02D3239F4689432
:102F700004C00E94E117820F911D219120532A3035
:102F8000C0F31EF4909581959F4F0895FB01DC01DD
:102F90008D91059080190110D9F3990B0895FB01CB
:102FA000DC018D91019080190110D9F3990B0895DE
:102FB000FC0101900020E9F7809590958E0F9F1FEE
:102FC00008957AE0979F902D879F802D910D112471
:102FD0000895CF93DF93EC012B8120FF1AC026FFC9
:102FE0000CC02F7B2B838E819F8101969F838E83C4
:102FF0008A8190E0DF91CF91089522FF18C0E88187
:10300000F9818081082E000C990B009729F4206229
:103010002B838FEF9FEFEECF3196F983E8832E81DC
:103020003F812F5F3F4F3F832E839927E3CFEA8570
:10303000FB85199597FFF3CF2B81019621F080E254
:10304000822B8B83E6CF80E1FBCF0F931F93CF932F
:10305000DF93182F092FEB018B8181FD09C01FEF32
:103060000FEF812F902FDF91CF911F910F91089536
:1030700082FF14C02E813F818C819D8128173907E2
:103080003CF4E881F981CF0101969983888310830C
:103090008E819F8101969F838E83E3CFE885F9859A
:1030A000812F1995892BA1F3DACF0F931F93CF931B
:1030B000DF93CDB7DEB7AE01485F5F4FDA016D91A8
:1030C0007D91AD0101EE19E0F80182819381DC016F
:1030D00013962C911397286013962C930E94A7188F
:1030E000D8011296ED91FC912381277F2383DF91F4
:1030F000CF911F910F9108950F931F93CF93DF935B
:10310000E091E309F091E4092381EC0110E000E093
:1031100021FD08C00FEF1FEF14C01995892B11F086
:103120000FEF1FEF89916091E3097091E409DB01D2
:103130001896ED91FC918111F0CF8AE01995892BB9
:1031400049F7C801DF91CF911F910F9108952F92F8
:103150003F924F925F926F927F928F929F92AF9227
:10316000BF92CF92DF92EF92FF920F931F93CF9374
:10317000DF9300D000D000D01F921F92CDB7DEB7F2
:103180007C013B018A01FC0117821682838181FF49
:10319000DDC1CE0101965C01F7019381F30193FD3E
:1031A000859193FF81913F01882309F453C18532B2
:1031B00039F493FD859193FF81913F01853229F484
:1031C000B70190E00E942518E7CF912C212C312CDB
:1031D000FFE1F31538F08B3211F190F4803209F1F0
:1031E000833229F137FC3CC020ED280F2A3050F5FE
:1031F00036FE20C08AE0989E200D1124922E06C033
:103200008D3291F0803371F7689430F8F30193FDBB
:10321000859193FF81913F018111DACF21C068949C
:1032200031F8689432F8F2CF689433F8EFCF6894AD
:1032300034F8ECCFEAE02E9E200D1124222E689463
:1032400035F8E4CF8E3229F436FC04C1689436F8A0
:10325000DDCF8C3619F4689437F8D8CF8836B1F2C0
:10326000982F9F7D95549330E0F08336A1F18337FA
:10327000C1F1833509F063C02801F2E04F0E511C03
:10328000F801C080D180692D70E036FC02C06FEF7C
:103290007FEFC6010E94A91A4C01689437F8820199
:1032A0000AC00C5F1F4FFFE3F98388248394912C9D
:1032B0006501E89437F833FE2DC0522C8114910437
:1032C00071F5552009F468CFB70180E290E00E94C3
:1032D00025185A94F6CFF801808189830E5F1F4F1D
:1032E000E4CF2801F2E04F0E511CF801C080D180DC
:1032F000692D70E036FC02C06FEF7FEFC6010E94BF
:10330000B41A4C018201D5CFB70180E290E00E944F
:1033100025182A942814190409F0B0F7CECFF60125
:1033200037FC859137FE81916F01B70190E00E94D3
:10333000251851105A94F1E08F1A9108BFCF8436A6
:1033400019F0893609F077C0F80137FE6BC060814B
:103350007181828193810C5F1F4FF32DFF763F2E89
:1033600097FF09C090958095709561957F4F8F4F1D
:103370009F4F689437F82AE030E0A5010E94BF1AF9
:10338000C82ECA188C2C432C36FE0CC0E89440F88A
:10339000C91440F434FE05C032FC03C0F32DFE7E98
:1033A0004F2E892C44FEAAC0FE01EC0DF11D808138
:1033B000803309F09CC0242D297E422E842D8870F4
:1033C000582E43FCAAC040FEA4C09C2C821418F4C2
:1033D0002C0C922C981844FEA6C0B70180E390E014
:1033E0000E94251842FE09C088E790E041FE02C015
:1033F00088E590E0B7010E942518C91408F49FC021
:10340000CA94D12C9FEFC91AD90ACA0CDB1CF60149
:1034100082916F01B70190E00E942518AC14BD04A1
:10342000B1F74FCF60817181072E000C880B990B8B
:103430000E5F1F4F92CFD32CE894D4F82AE030E0EF
:103440008537E1F1232D297FD22E8F36A9F1F0F4B3
:10345000883551F1F701868197812B960FB6F89444
:10346000DEBF0FBECDBFDF91CF911F910F91FF90B7
:10347000EF90DF90CF90BF90AF909F908F907F9014
:103480006F905F904F903F902F900895803749F054
:10349000883701F7D4FE02C06894D2F820E130E00A
:1034A0000DC06894D4F8F6CF34FE03C0822F866036
:1034B000D82E20E132E002C028E030E0F801D7FE4B
:1034C0000FC060817181828193810C5F1F4FA501C4
:1034D0000E94BF1AC82ECA183D2CE89437F852CF64
:1034E0006081718190E080E00E5F1F4FF0CF42FC61
:1034F00002C0839463CF8394839460CF842D8678B5
:1035000009F45CCFF6CFB70180E290E00E94251865
:1035100083948214C0F3512C5ECF522C581882141D
:1035200008F459CFF8CF842D867809F466CF8BE262
:1035300041FE80E247FC8DE2B70190E05CCFB7012D
:1035400080E390E00E9425189A9457CF8FEF9FEF69
:1035500084CFFC010590615070400110D8F7809530
:1035600090958E0F9F1F0895FC016150704001904F
:103570000110D8F7809590958E0F9F1F0895FA013E
:10358000AA27283051F1203181F1E8946F936E7FA2
:103590006E5F7F4F8F4F9F4FAF4FB1E03ED0B4E093
:1035A0003CD0670F781F891F9A1FA11D680F791FD4
:1035B0008A1F911DA11D6A0F711D811D911DA11DE5
:1035C00020D009F468943F912AE0269F11243019F5
:1035D000305D3193DEF6CF010895462F4770405D90
:1035E0004193B3E00FD0C9F7F6CF462F4F70405D3F
:1035F0004A3318F0495D31FD4052419302D0A9F79A
:10360000EACFB4E0A6959795879577956795BA9593
:10361000C9F700976105710508959B01AC010A2E59
:1036200006945795479537952795BA95C9F7620F30
:0E363000731F841F951FA01D0895F894FFCFEF
:10363E000000E90920000500A0007200390000001A
:10364E0000000000200173003A000000000000009E
:10365E0080006F0036000000000000000000000136
:10366E00000000000000240900000000000200001D
:10367E000000370900000000010101010068094047
:10368E00000000000000000000000000000000002C
:10369E00000000000000000000000000000000001C
:1036AE000000000A00D51568656C6C6F2C20776FD2
:1036BE00726C640048656C6C6F20576F726C64217D
:1036CE00207374617274207570006176722D72733E
:1036DE0073320061746D65676132353672667232AF
:1036EE000074696D65725F746872656164007469F7
:1036FE006D6500696E207365636F6E647300BE0244
:10370E00C30215020000000000004241444953521A
:10371E0000C000C8000C00535441434B204F564587
:10372E0052464C4F57004641494C45442041535355
:10373E00455254494F4E2E0069646C65006D6169A7
:10374E006E0068656C7000FF11C911C111A8090FD8
:06375E001607160116001B
:0400000300000F32B8
:00000001FF
